:1000000012C02CC02BC02AC029C028C027C026C0BF
:1000100025C024C023C022C021C020C01FC01EC0D4
:100020001DC01CC01BC011241FBECFE5D4E0DEBF25
:10003000CDBF10E0A0E6B0E0E4E6F4E002C0059039
:100040000D92AA3EB107D9F710E0AAEEB0E001C0C8
:100050001D92AE3EB107E1F72BD102C2D1CF87B3DB
:10006000807F87BBC59AC49800C000C0C69A00C0F4
:1000700000C086B38295807F00C000C0C69892E021
:100080009A95F1F700C0C69A00C000C096B300C0B0
:1000900000C0C69892E09A95F1F700C087FDE6CFC0
:1000A000C59887B38F6087BB0895282F22952F703E
:1000B0008F70662311F4C49801C0C49A00C000C0B8
:1000C000C69A98B3907F922B98BB92E09A95F1F7DD
:1000D00000C0C69892E09A95F1F700C0C69A98B30E
:1000E000907F982B98BB82E08A95F1F700C0C69864
:1000F00092E09A95F1F700C0B2DF0895DF93CF93B5
:100100000F92CDB7DEB7EFE5FAEE3197F1F700C009
:10011000000097B39F6097BBBE9ABC9ABD9A98B3F4
:10012000907F98BBC698C598C49800C00000C69A36
:10013000C19AF2E0FA95F1F700C0C69892E09A955C
:10014000F1F700C089838BDF89818C6060E0ADDFCF
:1001500088E260E0AADF0F90CF91DF910895EF92DF
:10016000FF92CF93DF93E82EE7017E01F92EE7019E
:1001700002C061E09ADF89918823D9F7DF91CF919E
:10018000FF90EF900895EF92FF920F931F93DF93EC
:10019000CF9300D000D00F92CDB7DEB79B01FE0108
:1001A000319645E0DF011D924A95E9F7FE0136964A
:1001B0000AE010E004C0B8012CD18293CB01009773
:1001C000D1F7BFEF2F3F3B0751F4FE01319680E09E
:1001D00090E001C0019621912223E1F304C085E063
:1001E00090E0821B930B8E010F5F1F4F080F191FAA
:1001F0007C0109C0F80181918F01805D61E055DFCC
:100200000894E11CF11CF5E0EF16F1049CF30F904B
:100210000F900F900F900F90CF91DF911F910F9142
:10022000FF90EF900895883228F46111806480680F
:1002300060E03BDF089586E880BD88E18AB983E30A
:1002400089B908958CB95E9BFECF80E48BB908957F
:100250005F9BFECF1BB88CB10895EF92FF92CF93B6
:10026000DF93E82EE7017E01F92EE7010AC0EADFFD
:100270008FEF90E7A2E081509040A040E1F700C0EE
:1002800000008991882399F7DF91CF91FF90EF903B
:100290000895E199FECF9FBB8EBB6DBBE29AE19AB8
:1002A0000895E199FECF9FBB8EBBE09A8DB3089570
:1002B000AF92BF92CF92DF92EF92FF920F931F9374
:1002C000DF93CF93CDB7DEB76A970FB6F894DEBF52
:1002D0000FBECDBFDE011196E0EDF0E08CE00190A5
:1002E0000D928150E1F7DE011D96EDEDF0E08CE01E
:1002F00001900D928150E1F701DF9DDF8FEF90E7D4
:10030000A2E081509040A040E1F700C000005E01F3
:100310000894A11CB11C8E01035F1F4F80E060E0B8
:1003200082DF80E690E01BDF80E061E07CDF80E739
:1003300090E015DF7501680190E020E0298F9A8F29
:1003400087DFD7013D917D01298D9A8D381709F4FA
:100350002F5FF60131916F01381709F49F5FE016A6
:10036000F10661F72C30E9F48091EA009091EB00FE
:1003700001969093EB008093EA0080E060E053DF09
:100380008FE790E0ECDE80E061E04DDF81E990E016
:10039000E6DE8BE061E047DF8091EA009091EB00C0
:1003A0001EC09C3001F58091EC009091ED0001960B
:1003B0009093ED008093EC0080E060E034DF8DE905
:1003C00090E0CDDE80E061E02EDF81E990E0C7DEE5
:1003D0008BE061E028DF8091EC009091ED0062E01D
:1003E00070E0D1DE0CC080E060E01DDF8FEA90E0BD
:1003F000B6DE80E061E017DF80EC90E0B0DE8FEFEA
:1004000091E1AAE781509040A040E1F700C00000D0
:1004100085CF97FB092E07260AD077FD04D00CD094
:1004200006D000201AF4709561957F4F0895F6F775
:10043000909581959F4F0895AA1BBB1B51E107C062
:10044000AA1FBB1FA617B70710F0A61BB70B881F64
:10045000991F5A95A9F780959095BC01CD010895F3
:04046000F894FFCF3E
:100464005246494420617474656E64616E6365002C
:10047400537769706520757220636172642000503F
:100484004552534F4E312020202020202020202070
:1004940000415454454E44414E434520005045527A
:1004A400534F4E3220202020202020202020006383
:1004B400617264206E6F74206D617463686564009A
:1004C400556E6B6E6F776E20706572736F6E200061
:1004D40031333030364638433732383200313330F6
:0A04E4003036464632353944370001
:00000001FF
